{
  "contractName": "EventTicketingFactory",
  "abi": [
    {
      "inputs": [],
      "payable": false,
      "stateMutability": "nonpayable",
      "type": "constructor"
    },
    {
      "constant": true,
      "inputs": [
        {
          "internalType": "uint256",
          "name": "",
          "type": "uint256"
        }
      ],
      "name": "deployedGAEvents",
      "outputs": [
        {
          "internalType": "address",
          "name": "",
          "type": "address"
        }
      ],
      "payable": false,
      "stateMutability": "view",
      "type": "function"
    },
    {
      "constant": true,
      "inputs": [
        {
          "internalType": "address",
          "name": "",
          "type": "address"
        }
      ],
      "name": "details",
      "outputs": [
        {
          "internalType": "string",
          "name": "name",
          "type": "string"
        },
        {
          "internalType": "string",
          "name": "symbol",
          "type": "string"
        },
        {
          "internalType": "uint256",
          "name": "totalSupply",
          "type": "uint256"
        },
        {
          "internalType": "uint256",
          "name": "primaryPrice",
          "type": "uint256"
        },
        {
          "internalType": "address",
          "name": "creator",
          "type": "address"
        }
      ],
      "payable": false,
      "stateMutability": "view",
      "type": "function"
    },
    {
      "constant": true,
      "inputs": [],
      "name": "manager",
      "outputs": [
        {
          "internalType": "address",
          "name": "",
          "type": "address"
        }
      ],
      "payable": false,
      "stateMutability": "view",
      "type": "function"
    },
    {
      "constant": false,
      "inputs": [
        {
          "internalType": "string",
          "name": "_name",
          "type": "string"
        },
        {
          "internalType": "string",
          "name": "_symbol",
          "type": "string"
        },
        {
          "internalType": "uint256",
          "name": "_tickets",
          "type": "uint256"
        },
        {
          "internalType": "uint256",
          "name": "_primaryPrice",
          "type": "uint256"
        }
      ],
      "name": "createGATickets",
      "outputs": [
        {
          "internalType": "address",
          "name": "",
          "type": "address"
        }
      ],
      "payable": false,
      "stateMutability": "nonpayable",
      "type": "function"
    },
    {
      "constant": true,
      "inputs": [],
      "name": "getDeployedGAEventTickets",
      "outputs": [
        {
          "internalType": "address[]",
          "name": "",
          "type": "address[]"
        }
      ],
      "payable": false,
      "stateMutability": "view",
      "type": "function"
    }
  ],
  "bytecode": "0x608060405234801561001057600080fd5b50336000806101000a81548173ffffffffffffffffffffffffffffffffffffffff021916908373ffffffffffffffffffffffffffffffffffffffff1602179055506124fa806100606000396000f3fe608060405234801561001057600080fd5b50600436106100575760003560e01c80630c4b74c41461005c5780631fe658ce146102025780632314bed51461027057806324a92f9f146102cf578063481c6a7514610439575b600080fd5b6101c06004803603608081101561007257600080fd5b810190808035906020019064010000000081111561008f57600080fd5b8201836020820111156100a157600080fd5b803590602001918460018302840111640100000000831117156100c357600080fd5b91908080601f016020809104026020016040519081016040528093929190818152602001838380828437600081840152601f19601f8201169050808301925050505050505091929192908035906020019064010000000081111561012657600080fd5b82018360208201111561013857600080fd5b8035906020019184600183028401116401000000008311171561015a57600080fd5b91908080601f016020809104026020016040519081016040528093929190818152602001838380828437600081840152601f19601f8201169050808301925050505050505091929192908035906020019092919080359060200190929190505050610483565b604051808273ffffffffffffffffffffffffffffffffffffffff1673ffffffffffffffffffffffffffffffffffffffff16815260200191505060405180910390f35b61022e6004803603602081101561021857600080fd5b8101908080359060200190929190505050610758565b604051808273ffffffffffffffffffffffffffffffffffffffff1673ffffffffffffffffffffffffffffffffffffffff16815260200191505060405180910390f35b610278610794565b6040518080602001828103825283818151815260200191508051906020019060200280838360005b838110156102bb5780820151818401526020810190506102a0565b505050509050019250505060405180910390f35b610311600480360360208110156102e557600080fd5b81019080803573ffffffffffffffffffffffffffffffffffffffff169060200190929190505050610822565b6040518080602001806020018681526020018581526020018473ffffffffffffffffffffffffffffffffffffffff1673ffffffffffffffffffffffffffffffffffffffff168152602001838103835288818151815260200191508051906020019080838360005b83811015610393578082015181840152602081019050610378565b50505050905090810190601f1680156103c05780820380516001836020036101000a031916815260200191505b50838103825287818151815260200191508051906020019080838360005b838110156103f95780820151818401526020810190506103de565b50505050905090810190601f1680156104265780820380516001836020036101000a031916815260200191505b5097505050505050505060405180910390f35b6104416109a8565b604051808273ffffffffffffffffffffffffffffffffffffffff1673ffffffffffffffffffffffffffffffffffffffff16815260200191505060405180910390f35b6000808585858533604051610497906109cd565b8080602001806020018681526020018581526020018473ffffffffffffffffffffffffffffffffffffffff1673ffffffffffffffffffffffffffffffffffffffff168152602001838103835288818151815260200191508051906020019080838360005b838110156105165780820151818401526020810190506104fb565b50505050905090810190601f1680156105435780820380516001836020036101000a031916815260200191505b50838103825287818151815260200191508051906020019080838360005b8381101561057c578082015181840152602081019050610561565b50505050905090810190601f1680156105a95780820380516001836020036101000a031916815260200191505b50975050505050505050604051809103906000f0801580156105cf573d6000803e3d6000fd5b50905060018190806001815401808255809150509060018203906000526020600020016000909192909190916101000a81548173ffffffffffffffffffffffffffffffffffffffff021916908373ffffffffffffffffffffffffffffffffffffffff160217905550506040518060a001604052808781526020018681526020018581526020018481526020013373ffffffffffffffffffffffffffffffffffffffff16815250600260008373ffffffffffffffffffffffffffffffffffffffff1673ffffffffffffffffffffffffffffffffffffffff16815260200190815260200160002060008201518160000190805190602001906106d09291906109db565b5060208201518160010190805190602001906106ed9291906109db565b50604082015181600201556060820151816003015560808201518160040160006101000a81548173ffffffffffffffffffffffffffffffffffffffff021916908373ffffffffffffffffffffffffffffffffffffffff16021790555090505080915050949350505050565b6001818154811061076557fe5b906000526020600020016000915054906101000a900473ffffffffffffffffffffffffffffffffffffffff1681565b6060600180548060200260200160405190810160405280929190818152602001828054801561081857602002820191906000526020600020905b8160009054906101000a900473ffffffffffffffffffffffffffffffffffffffff1673ffffffffffffffffffffffffffffffffffffffff16815260200190600101908083116107ce575b5050505050905090565b6002602052806000526040600020600091509050806000018054600181600116156101000203166002900480601f0160208091040260200160405190810160405280929190818152602001828054600181600116156101000203166002900480156108ce5780601f106108a3576101008083540402835291602001916108ce565b820191906000526020600020905b8154815290600101906020018083116108b157829003601f168201915b505050505090806001018054600181600116156101000203166002900480601f01602080910402602001604051908101604052809291908181526020018280546001816001161561010002031660029004801561096c5780601f106109415761010080835404028352916020019161096c565b820191906000526020600020905b81548152906001019060200180831161094f57829003601f168201915b5050505050908060020154908060030154908060040160009054906101000a900473ffffffffffffffffffffffffffffffffffffffff16905085565b6000809054906101000a900473ffffffffffffffffffffffffffffffffffffffff1681565b611a458062000a8183390190565b828054600181600116156101000203166002900490600052602060002090601f016020900481019282601f10610a1c57805160ff1916838001178555610a4a565b82800160010185558215610a4a579182015b82811115610a49578251825591602001919060010190610a2e565b5b509050610a579190610a5b565b5090565b610a7d91905b80821115610a79576000816000905550600101610a61565b5090565b9056fe608060405260006008553480156200001657600080fd5b5060405162001a4538038062001a45833981810160405260a08110156200003c57600080fd5b81019080805160405193929190846401000000008211156200005d57600080fd5b838201915060208201858111156200007457600080fd5b82518660018202830111640100000000821117156200009257600080fd5b8083526020830192505050908051906020019080838360005b83811015620000c8578082015181840152602081019050620000ab565b50505050905090810190601f168015620000f65780820380516001836020036101000a031916815260200191505b50604052602001805160405193929190846401000000008211156200011a57600080fd5b838201915060208201858111156200013157600080fd5b82518660018202830111640100000000821117156200014f57600080fd5b8083526020830192505050908051906020019080838360005b838110156200018557808201518184015260208101905062000168565b50505050905090810190601f168015620001b35780820380516001836020036101000a031916815260200191505b506040526020018051906020019092919080519060200190929190805190602001909291905050508460069080519060200190620001f3929190620002d6565b5083600790805190602001906200020c929190620002d6565b50600854600a0a830260098190555081600a8190555080600b60006101000a81548173ffffffffffffffffffffffffffffffffffffffff021916908373ffffffffffffffffffffffffffffffffffffffff160217905550600954600e6000600b60009054906101000a900473ffffffffffffffffffffffffffffffffffffffff1673ffffffffffffffffffffffffffffffffffffffff1673ffffffffffffffffffffffffffffffffffffffff16815260200190815260200160002081905550505050505062000385565b828054600181600116156101000203166002900490600052602060002090601f016020900481019282601f106200031957805160ff19168380011785556200034a565b828001600101855582156200034a579182015b82811115620003495782518255916020019190600101906200032c565b5b5090506200035991906200035d565b5090565b6200038291905b808211156200037e57600081600090555060010162000364565b5090565b90565b6116b080620003956000396000f3fe6080604052600436106101145760003560e01c8063378b7e0f116100a057806394a403ac1161006457806394a403ac1461051157806395d89b4114610540578063a9059cbb146105d0578063c19d93fb14610643578063dd62ed3e1461067c57610114565b8063378b7e0f146103e1578063586cd16b1461041057806370a082311461043f57806373f6f32b146104a45780638b7afe2e146104e657610114565b806312f53950116100e757806312f53950146102a257806318160ddd146102cd57806323b872dd146102f8578063313ce5671461038b578063362a07ae146103b657610114565b806302d05d3f1461011957806306fdde0314610170578063095ea7b3146102005780630ff48fbe14610273575b600080fd5b34801561012557600080fd5b5061012e610701565b604051808273ffffffffffffffffffffffffffffffffffffffff1673ffffffffffffffffffffffffffffffffffffffff16815260200191505060405180910390f35b34801561017c57600080fd5b50610185610727565b6040518080602001828103825283818151815260200191508051906020019080838360005b838110156101c55780820151818401526020810190506101aa565b50505050905090810190601f1680156101f25780820380516001836020036101000a031916815260200191505b509250505060405180910390f35b34801561020c57600080fd5b506102596004803603604081101561022357600080fd5b81019080803573ffffffffffffffffffffffffffffffffffffffff169060200190929190803590602001909291905050506107c5565b604051808215151515815260200191505060405180910390f35b34801561027f57600080fd5b50610288610962565b604051808215151515815260200191505060405180910390f35b3480156102ae57600080fd5b506102b76109e5565b6040518082815260200191505060405180910390f35b3480156102d957600080fd5b506102e26109eb565b6040518082815260200191505060405180910390f35b34801561030457600080fd5b506103716004803603606081101561031b57600080fd5b81019080803573ffffffffffffffffffffffffffffffffffffffff169060200190929190803573ffffffffffffffffffffffffffffffffffffffff169060200190929190803590602001909291905050506109f1565b604051808215151515815260200191505060405180910390f35b34801561039757600080fd5b506103a0610ca9565b6040518082815260200191505060405180910390f35b3480156103c257600080fd5b506103cb610caf565b6040518082815260200191505060405180910390f35b3480156103ed57600080fd5b506103f6610cb5565b604051808215151515815260200191505060405180910390f35b34801561041c57600080fd5b50610425610d38565b604051808215151515815260200191505060405180910390f35b34801561044b57600080fd5b5061048e6004803603602081101561046257600080fd5b81019080803573ffffffffffffffffffffffffffffffffffffffff169060200190929190505050610dbb565b6040518082815260200191505060405180910390f35b6104d0600480360360208110156104ba57600080fd5b8101908080359060200190929190505050610dd3565b6040518082815260200191505060405180910390f35b3480156104f257600080fd5b506104fb6110d9565b6040518082815260200191505060405180910390f35b34801561051d57600080fd5b506105266110e1565b604051808215151515815260200191505060405180910390f35b34801561054c57600080fd5b50610555611164565b6040518080602001828103825283818151815260200191508051906020019080838360005b8381101561059557808201518184015260208101905061057a565b50505050905090810190601f1680156105c25780820380516001836020036101000a031916815260200191505b509250505060405180910390f35b3480156105dc57600080fd5b50610629600480360360408110156105f357600080fd5b81019080803573ffffffffffffffffffffffffffffffffffffffff16906020019092919080359060200190929190505050611202565b604051808215151515815260200191505060405180910390f35b34801561064f57600080fd5b50610658611315565b6040518082600381111561066857fe5b60ff16815260200191505060405180910390f35b34801561068857600080fd5b506106eb6004803603604081101561069f57600080fd5b81019080803573ffffffffffffffffffffffffffffffffffffffff169060200190929190803573ffffffffffffffffffffffffffffffffffffffff169060200190929190505050611328565b6040518082815260200191505060405180910390f35b600b60009054906101000a900473ffffffffffffffffffffffffffffffffffffffff1681565b60068054600181600116156101000203166002900480601f0160208091040260200160405190810160405280929190818152602001828054600181600116156101000203166002900480156107bd5780601f10610792576101008083540402835291602001916107bd565b820191906000526020600020905b8154815290600101906020018083116107a057829003601f168201915b505050505081565b60008073ffffffffffffffffffffffffffffffffffffffff168373ffffffffffffffffffffffffffffffffffffffff161415610869576040517f08c379a000000000000000000000000000000000000000000000000000000000815260040180806020018281038252600b8152602001807f626164206164647265737300000000000000000000000000000000000000000081525060200191505060405180910390fd5b81600f60003373ffffffffffffffffffffffffffffffffffffffff1673ffffffffffffffffffffffffffffffffffffffff16815260200190815260200160002060008573ffffffffffffffffffffffffffffffffffffffff1673ffffffffffffffffffffffffffffffffffffffff168152602001908152602001600020600082825401925050819055508273ffffffffffffffffffffffffffffffffffffffff163373ffffffffffffffffffffffffffffffffffffffff167f8c5be1e5ebec7d5bd14f71427d1e84f3dd0314c0f7b2291e5b200ac8c7c3b925846040518082815260200191505060405180910390a36001905092915050565b6000600b60009054906101000a900473ffffffffffffffffffffffffffffffffffffffff1673ffffffffffffffffffffffffffffffffffffffff163373ffffffffffffffffffffffffffffffffffffffff16146109be57600080fd5b6000600d60006101000a81548160ff021916908360038111156109dd57fe5b021790555090565b600c5481565b60095481565b600081600f60008673ffffffffffffffffffffffffffffffffffffffff1673ffffffffffffffffffffffffffffffffffffffff16815260200190815260200160002060003373ffffffffffffffffffffffffffffffffffffffff1673ffffffffffffffffffffffffffffffffffffffff1681526020019081526020016000205410158015610a7f5750600082115b610a8857600080fd5b81600e60008673ffffffffffffffffffffffffffffffffffffffff1673ffffffffffffffffffffffffffffffffffffffff1681526020019081526020016000205410158015610ad75750600082115b610ae057600080fd5b600073ffffffffffffffffffffffffffffffffffffffff168373ffffffffffffffffffffffffffffffffffffffff161415610b83576040517f08c379a000000000000000000000000000000000000000000000000000000000815260040180806020018281038252600b8152602001807f626164206164647265737300000000000000000000000000000000000000000081525060200191505060405180910390fd5b610c1282600f60008773ffffffffffffffffffffffffffffffffffffffff1673ffffffffffffffffffffffffffffffffffffffff16815260200190815260200160002060003373ffffffffffffffffffffffffffffffffffffffff1673ffffffffffffffffffffffffffffffffffffffff1681526020019081526020016000205461134d90919063ffffffff16565b600f60008673ffffffffffffffffffffffffffffffffffffffff1673ffffffffffffffffffffffffffffffffffffffff16815260200190815260200160002060003373ffffffffffffffffffffffffffffffffffffffff1673ffffffffffffffffffffffffffffffffffffffff16815260200190815260200160002081905550610c9d848484611397565b50600190509392505050565b60085481565b600a5481565b6000600b60009054906101000a900473ffffffffffffffffffffffffffffffffffffffff1673ffffffffffffffffffffffffffffffffffffffff163373ffffffffffffffffffffffffffffffffffffffff1614610d1157600080fd5b6002600d60006101000a81548160ff02191690836003811115610d3057fe5b021790555090565b6000600b60009054906101000a900473ffffffffffffffffffffffffffffffffffffffff1673ffffffffffffffffffffffffffffffffffffffff163373ffffffffffffffffffffffffffffffffffffffff1614610d9457600080fd5b6001600d60006101000a81548160ff02191690836003811115610db357fe5b021790555090565b600e6020528060005260406000206000915090505481565b6000806003811115610de157fe5b600d60009054906101000a900460ff166003811115610dfc57fe5b14610e0657600080fd5b600a548202341015610e1757600080fd5b81600e6000600b60009054906101000a900473ffffffffffffffffffffffffffffffffffffffff1673ffffffffffffffffffffffffffffffffffffffff1673ffffffffffffffffffffffffffffffffffffffff168152602001908152602001600020541015610e8557600080fd5b610ef982600e6000600b60009054906101000a900473ffffffffffffffffffffffffffffffffffffffff1673ffffffffffffffffffffffffffffffffffffffff1673ffffffffffffffffffffffffffffffffffffffff1681526020019081526020016000205461134d90919063ffffffff16565b600e6000600b60009054906101000a900473ffffffffffffffffffffffffffffffffffffffff1673ffffffffffffffffffffffffffffffffffffffff1673ffffffffffffffffffffffffffffffffffffffff16815260200190815260200160002081905550610fb082600e60003373ffffffffffffffffffffffffffffffffffffffff1673ffffffffffffffffffffffffffffffffffffffff1681526020019081526020016000205461153390919063ffffffff16565b600e60003373ffffffffffffffffffffffffffffffffffffffff1673ffffffffffffffffffffffffffffffffffffffff168152602001908152602001600020819055503373ffffffffffffffffffffffffffffffffffffffff16600b60009054906101000a900473ffffffffffffffffffffffffffffffffffffffff1673ffffffffffffffffffffffffffffffffffffffff167fddf252ad1be2c89b69c2b068fc378daa952ba7f163c4a11628f55a4df523b3ef846040518082815260200191505060405180910390a381600a54023403905080600c819055503373ffffffffffffffffffffffffffffffffffffffff166108fc829081150290604051600060405180830381858888f193505050501580156110d0573d6000803e3d6000fd5b50809050919050565b600047905090565b6000600b60009054906101000a900473ffffffffffffffffffffffffffffffffffffffff1673ffffffffffffffffffffffffffffffffffffffff163373ffffffffffffffffffffffffffffffffffffffff161461113d57600080fd5b6003600d60006101000a81548160ff0219169083600381111561115c57fe5b021790555090565b60078054600181600116156101000203166002900480601f0160208091040260200160405190810160405280929190818152602001828054600181600116156101000203166002900480156111fa5780601f106111cf576101008083540402835291602001916111fa565b820191906000526020600020905b8154815290600101906020018083116111dd57829003601f168201915b505050505081565b600081600e60003373ffffffffffffffffffffffffffffffffffffffff1673ffffffffffffffffffffffffffffffffffffffff16815260200190815260200160002054101580156112535750600082115b61125c57600080fd5b600073ffffffffffffffffffffffffffffffffffffffff168373ffffffffffffffffffffffffffffffffffffffff1614156112ff576040517f08c379a000000000000000000000000000000000000000000000000000000000815260040180806020018281038252600b8152602001807f626164206164647265737300000000000000000000000000000000000000000081525060200191505060405180910390fd5b61130a338484611397565b506001905092915050565b600d60009054906101000a900460ff1681565b600f602052816000526040600020602052806000526040600020600091509150505481565b600061138f83836040518060400160405280601e81526020017f536166654d6174683a207375627472616374696f6e206f766572666c6f7700008152506115bb565b905092915050565b60006113eb82600e60008773ffffffffffffffffffffffffffffffffffffffff1673ffffffffffffffffffffffffffffffffffffffff1681526020019081526020016000205461134d90919063ffffffff16565b600e60008673ffffffffffffffffffffffffffffffffffffffff1673ffffffffffffffffffffffffffffffffffffffff1681526020019081526020016000208190555061148082600e60008673ffffffffffffffffffffffffffffffffffffffff1673ffffffffffffffffffffffffffffffffffffffff1681526020019081526020016000205461153390919063ffffffff16565b600e60008573ffffffffffffffffffffffffffffffffffffffff1673ffffffffffffffffffffffffffffffffffffffff168152602001908152602001600020819055508273ffffffffffffffffffffffffffffffffffffffff168473ffffffffffffffffffffffffffffffffffffffff167fddf252ad1be2c89b69c2b068fc378daa952ba7f163c4a11628f55a4df523b3ef846040518082815260200191505060405180910390a3600190509392505050565b6000808284019050838110156115b1576040517f08c379a000000000000000000000000000000000000000000000000000000000815260040180806020018281038252601b8152602001807f536166654d6174683a206164646974696f6e206f766572666c6f77000000000081525060200191505060405180910390fd5b8091505092915050565b6000838311158290611668576040517f08c379a00000000000000000000000000000000000000000000000000000000081526004018080602001828103825283818151815260200191508051906020019080838360005b8381101561162d578082015181840152602081019050611612565b50505050905090810190601f16801561165a5780820380516001836020036101000a031916815260200191505b509250505060405180910390fd5b506000838503905080915050939250505056fea265627a7a723158202d932ae039a5beec9eb90fbaea3f94309911f002be2efa9c2a1348f62a3f7a6164736f6c63430005100032a265627a7a72315820571b79ecc6720d5cf6d9cf347949ee2bc35e6e9f17d40ffd8c155a64d2aac42664736f6c63430005100032",
  "source": "// SPDX-License-Identifier: MIT\r\npragma solidity >=0.4.22 <0.9.0;\r\nimport \"openzeppelin-solidity/contracts/math/SafeMath.sol\";\r\n\r\n// ----------------------------------------------------------------------------\r\n// ERC Token Standard #20 Interface\r\n// https://github.com/ethereum/EIPs/blob/master/EIPS/eip-20.md\r\n// ----------------------------------------------------------------------------\r\n\r\n/// @title The ERC20 interface used to develop the GAEventTickets contract\r\ncontract ERC20Interface {\r\n    // Public state variables that automatic receive a getter() function\r\n    /// @custom OPTIONAL: function name() public view returns (string memory name);\r\n    string public name;\r\n\r\n    /// @custom OPTIONAL: function symbol() public view returns (string memory symbol);\r\n    string public symbol;\r\n\r\n    /// @custom OPTIONAL: function decimals() public view returns (uint8 decimals);\r\n    uint256 public decimals;\r\n\r\n    /// @custom function totalSupply() public view returns (uint256 totalSupply);\r\n    uint256 public totalSupply;\r\n\r\n    /// @notice function balanceOf(address _owner) public view returns (uint256 balanceOf);\r\n    mapping(address => uint256) public balanceOf;\r\n\r\n    /// @notice function allowance(address _owner, address _spender) public view returns (uint256 allowance);\r\n    mapping(address => mapping(address => uint256)) public allowance;\r\n\r\n    // Functions\r\n    function transfer(address _to, uint256 _value)\r\n        public\r\n        returns (bool success);\r\n\r\n    function transferFrom(\r\n        address _from,\r\n        address _to,\r\n        uint256 _value\r\n    ) public returns (bool success);\r\n\r\n    function approve(address _spender, uint256 _value)\r\n        public\r\n        returns (bool success);\r\n\r\n    // Events\r\n    event Transfer(address indexed _from, address indexed _to, uint256 _value);\r\n    event Approval(\r\n        address indexed _owner,\r\n        address indexed _spender,\r\n        uint256 _value\r\n    );\r\n}\r\n\r\ncontract EventTicketingFactory {\r\n    /// @notice Keeps track of ticket factory manager\r\n    address public manager;\r\n    /// @notice An array of all deployed contract addresses\r\n    address[] public deployedGAEvents;\r\n    /// @notice A mapping of the event details of every deployed contract\r\n    mapping(address => Details) public details;\r\n\r\n    /// @notice Struct definition to hold event details\r\n    struct Details {\r\n        string name;\r\n        string symbol;\r\n        uint256 totalSupply;\r\n        uint256 primaryPrice;\r\n        address creator;\r\n    }\r\n\r\n    /// @notice Sets manager of EventTicketingFactory contract to initial contract deployer\r\n    constructor() public {\r\n        manager = msg.sender;\r\n    }\r\n    \r\n    /// @notice Launches a new GAEvent smart contract\r\n    /// @notice Stores the new contract's address in deployedGAEvents array\r\n    /// @notice Stores the new contract's details in details mapping\r\n    /// @return A new GAEvent contract\r\n    function createGATickets(string memory _name, string memory _symbol, uint256 _tickets, uint256 _primaryPrice) public returns(address) {\r\n        address newGAEvent = address(new GAEventTickets(_name, _symbol, _tickets, _primaryPrice, msg.sender));\r\n        deployedGAEvents.push(newGAEvent);\r\n        details[newGAEvent] = Details({\r\n            name: _name,\r\n            symbol: _symbol,\r\n            totalSupply: _tickets,\r\n            primaryPrice: _primaryPrice,\r\n            creator: msg.sender\r\n        });\r\n        return newGAEvent;\r\n    }\r\n    \r\n    /// @notice Simple function to retrieve the entire deployedGAEvents array\r\n    /// @return Array that holds the address of all deployed contracts\r\n    function getDeployedGAEventTickets() public view returns(address[] memory) {\r\n        return deployedGAEvents;\r\n    }\r\n}\r\n\r\n/// @title Creates a contract that represents General Admission tickets using the ERC20 standard\r\n/// @author Rafael Cordero\r\n/// @notice This contract executes the initial sale of tickets, i.e. the Primary Market\r\n/// @dev Includes additional functionality that is not part of ERC20 standard\r\ncontract GAEventTickets is ERC20Interface {\r\n    using SafeMath for uint256;\r\n\r\n    /// @notice Stores the tickets name\r\n    string public name;\r\n    /// @notice Stores the tickets symbol\r\n    string public symbol;\r\n    /// @notice Stores the number of sub-units for each ticket\r\n    /// @notice Since these are not tokens make decimals \"0\"\r\n    uint256 public decimals = 0;\r\n    /// @notice Keeps track of initial ticket quantity issued\r\n    uint256 public totalSupply;\r\n    /// @notice Keeps track of initial ticket price\r\n    /// @notice NOT part of ERC20Interface/Standard\r\n    uint256 public primaryPrice;\r\n    /// @notice Keeps track of event creator address\r\n    /// @notice NOT part of ERC20Interface/Standard\r\n    address public creator;\r\n    /// @notice Keeps track of most recent Eth refund caused by a ticket overpayment\r\n    /// @notice NOT part of ERC20Interface/Standard\r\n    uint public refunded;\r\n    /// @notice Keeps track of the ticket sale state\r\n    /// @notice NOT part of ERC20Interface/Standard\r\n    State public state;\r\n\r\n    /// @notice Keeps track of each address' ticket balance\r\n    mapping(address => uint256) public balanceOf;\r\n\r\n    /// @notice Keeps track of amount of an address' tokens that can be transferred by another addresses\r\n    /// @notice First \"address\" is the address that provides the allowance and has the tokens\r\n    /// @notice Second \"address\" is the address that is allowed to transfer the allowance using \"approve()\"\r\n    /// @notice Transfer is performed by \"transferFrom()\" where receiver can be second address or a third party address\r\n    mapping(address => mapping(address => uint256)) public allowance;\r\n\r\n    /// @notice Defines the possible states of the ticket sale\r\n    /// @notice NOT part of ERC20Interface/Standard\r\n    enum State {ForSale, Paused, PreSale, Ended}\r\n\r\n    /// @notice Defines a ticket sale/transfer with buyer, seller and ticket amount \r\n    event Transfer(address indexed from, address indexed to, uint256 value);\r\n    /// @notice Defines a ticket transfer allowance with owner, spender and ticket amount \r\n    event Approval(\r\n        address indexed owner,\r\n        address indexed spender,\r\n        uint256 value\r\n    );\r\n\r\n    /// @notice Constructor function that asks for ticket name, symbol, initial quantity and initial price, and address of event creator\r\n    /// @notice Gives the entire balance of tickets created to the event creator\r\n    constructor(string memory _name, string memory _symbol, uint256 _tickets, uint256 _primaryPrice, address _creator) public {\r\n        name = _name;\r\n        symbol = _symbol;\r\n        totalSupply = _tickets * (10**decimals);\r\n        primaryPrice = _primaryPrice;\r\n        creator = _creator; // identify contract deployer as creator\r\n        balanceOf[creator] = totalSupply; // give all initial token supply to creator\r\n    }\r\n\r\n    /// @notice Helper function that performs token exchange between accounts\r\n    /// @notice NOT part of ERC20Interface/Standard\r\n    /// @return Transaction success as a Bool\r\n    function _transfer(\r\n        address _from,\r\n        address _to,\r\n        uint256 _value\r\n    ) internal returns (bool success) {\r\n        //balanceOf[_from] -= _value;\r\n        balanceOf[_from] = balanceOf[_from].sub(_value);\r\n        //balanceOf[_to] += _value;\r\n        balanceOf[_to] = balanceOf[_to].add(_value);\r\n        emit Transfer(_from, _to, _value);\r\n        return true;\r\n    }\r\n\r\n    /// @notice Transfers _value amount of tokens from msg.sender to address _to, and MUST fire the Transfer event.\r\n    /// @dev Function will revert if sender does not have sufficient tickets\r\n    /// @dev Function will revert if number of tickets to transfer is not a positive number\r\n    /// @dev Function will revert if transaction originates from a bad address\r\n    /// @return Transaction success as a Bool\r\n    function transfer(address _to, uint256 _value)\r\n        public\r\n        returns (bool)\r\n    {\r\n        require(balanceOf[msg.sender] >= _value && _value > 0);\r\n        require(_to != address(0), \"bad address\");\r\n        _transfer(msg.sender, _to, _value);\r\n        return true;\r\n    }\r\n\r\n    /// @notice msg.sender approves an amount of their tokens that can be transferred by second account\r\n    /// @notice to third account to be specified in \"transferFrom()\"\r\n    /// @notice Second and third accounts can be the same address\r\n    /// @notice e.g. msg.sender approves an exchange to transfer some of its tokens to a buyer\r\n    /// @dev Function will revert if transaction originates from a bad address\r\n    /// @return Transaction success as a Bool\r\n    function approve(address _spender, uint256 _value)\r\n        public\r\n        returns (bool success)\r\n    {\r\n        require(_spender != address(0), \"bad address\");\r\n        allowance[msg.sender][_spender] += _value;\r\n        emit Approval(msg.sender, _spender, _value);\r\n        return true;\r\n    }\r\n    \r\n    /// @notice Simple function to determine the ETH balance of this contract\r\n    /// @notice NOT part of ERC20Interface/Standard\r\n    /// @return The ETH balance of this contract in Wei\r\n    function contractBalance() public view returns (uint) {\r\n        return address(this).balance;\r\n    }\r\n\r\n    /// @notice Transfers tokens from one account \"_from\" to second account \"_to\" by a third account (\"msg.sender\")\r\n    /// @notice Second and third accounts can be the same address\r\n    /// @notice Third account must be approved by first account i.e. first account's tokens that will be transferred\r\n    /// @notice Allowance amount defined by \"allowance[_from][msg.sender]\" must be established\r\n    /// @dev Function will revert if sender does not have sufficient tickets\r\n    /// @dev Function will revert if receiver does not have sufficient ticket allowance\r\n    /// @dev Function will revert if number of tickets to transfer is not a positive number\r\n    /// @dev Function will revert if transaction originates from a bad address\r\n    /// @return Transaction success as a Bool\r\n    function transferFrom(\r\n        address _from,\r\n        address _to,\r\n        uint256 _value\r\n    ) public returns (bool success) {\r\n        // checks that the third account has adequant allowance level\r\n        require(allowance[_from][msg.sender] >= _value && _value > 0);\r\n        // checks that the first account has adequant token amount\r\n        require(balanceOf[_from] >= _value && _value > 0);\r\n        // checks that the second account is a real address\r\n        require(_to != address(0), \"bad address\");\r\n        // adjusts allowance level of third account\r\n        //allowance[_from][msg.sender] -= _value;\r\n        allowance[_from][msg.sender] = allowance[_from][msg.sender].sub(_value);\r\n        // performs the transfer from first to second account\r\n        _transfer(_from, _to, _value);\r\n        return true;\r\n    }\r\n\r\n    /// @notice Changes the state of the contract to ForSale\r\n    /// @notice NOT part of ERC20Interface/Standard\r\n    /// @return Transaction success as a bool\r\n    function setToForSale () public onlyOwner() returns(bool) {\r\n        state = State.ForSale;\r\n    }\r\n    \r\n    /// @notice Changes the state of the contract to Paused\r\n    /// @notice NOT part of ERC20Interface/Standard\r\n    /// @return Transaction success as a bool\r\n    function setToPaused () public onlyOwner() returns(bool) {\r\n        state = State.Paused;\r\n    }\r\n    \r\n    /// @notice Changes the state of the contract to PreSale\r\n    /// @notice NOT part of ERC20Interface/Standard\r\n    /// @return Transaction success as a bool\r\n    function setToPresale () public onlyOwner() returns(bool) {\r\n        state = State.PreSale;\r\n    }\r\n    \r\n    /// @notice Changes the state of the contract to Ended\r\n    /// @notice NOT part of ERC20Interface/Standard\r\n    /// @return Transaction success as a bool\r\n    function setToEnded () public onlyOwner() returns(bool) {\r\n        state = State.Ended;\r\n    }\r\n\r\n    /// @notice changes the state of the contract to Ended\r\n    /// @notice NOT part of ERC20Interface/Standard\r\n    modifier onlyOwner() {\r\n        require(msg.sender == creator);\r\n        _;\r\n    }\r\n\r\n    /// @notice Allowance amount defined by \"allowance[_from][msg.sender]\" must be established\r\n    /// @notice Performs a ticket transfer from event creator to ticket buyer\r\n    /// @notice Returns any amount of overpayment\r\n    /// @notice NOT part of ERC20Interface/Standard\r\n    /// @dev Function will revert if contract state is not ForSale\r\n    /// @dev Function will revert amount sent does not cover the purchase price\r\n    /// @dev Function will revert if event creator does not have enough tickets to cover the sale\r\n    /// @return The amount of Eth in Wei returned to ticket buyer as a uint\r\n    function primaryTransfer(uint _qty) public payable returns (uint amountToRefund) {\r\n        // checks that amount sent can pay for amount of tickets to be purchased\r\n        require(state == State.ForSale);\r\n        // checks that amount sent can pay for amount of tickets to be purchased\r\n        require(msg.value >= _qty * primaryPrice);\r\n        // checks that creator has enough tickets to satisfy amount of tickets to be purchased\r\n        require(balanceOf[creator] >= _qty);\r\n        \r\n        //balanceOf[creator] -= _qty;\r\n        balanceOf[creator] = balanceOf[creator].sub(_qty);\r\n        //balanceOf[msg.sender] += _qty;\r\n        balanceOf[msg.sender] = balanceOf[msg.sender].add(_qty);\r\n        emit Transfer(creator, msg.sender, _qty);\r\n\r\n        // returns excess value sent;\r\n        amountToRefund = msg.value - (primaryPrice * _qty);\r\n        refunded = amountToRefund;\r\n        msg.sender.transfer(amountToRefund);\r\n        \r\n        return amountToRefund;\r\n    }\r\n}\r\n",
  "sourcePath": "C:\\Programming Code\\Consensys Bootcamp\\blockchain-developer-bootcamp-final-project\\src\\contracts\\EventTicketingFactory.sol",
  "compiler": {
    "name": "solc",
    "version": "0.5.16+commit.9c3226ce.Emscripten.clang"
  },
  "schemaVersion": "3.4.7",
  "updatedAt": "2022-05-15T19:00:03.289Z",
  "networkType": "ethereum",
  "devdoc": {
    "methods": {
      "createGATickets(string,string,uint256,uint256)": {
        "return": "A new GAEvent contract"
      },
      "getDeployedGAEventTickets()": {
        "return": "Array that holds the address of all deployed contracts"
      }
    }
  },
  "userdoc": {
    "methods": {
      "constructor": "Sets manager of EventTicketingFactory contract to initial contract deployer",
      "createGATickets(string,string,uint256,uint256)": {
        "notice": "Launches a new GAEvent smart contractStores the new contract's address in deployedGAEvents arrayStores the new contract's details in details mapping"
      },
      "getDeployedGAEventTickets()": {
        "notice": "Simple function to retrieve the entire deployedGAEvents array"
      }
    }
  }
}